{
  "_format": "hh-sol-artifact-1",
  "contractName": "Hero",
  "sourceName": "contracts/Hero.sol",
  "abi": [
    {
      "inputs": [
        {
          "internalType": "uint256",
          "name": "hero",
          "type": "uint256"
        }
      ],
      "name": "addDexterity",
      "outputs": [
        {
          "internalType": "uint32",
          "name": "",
          "type": "uint32"
        }
      ],
      "stateMutability": "pure",
      "type": "function"
    },
    {
      "inputs": [
        {
          "internalType": "uint256",
          "name": "hero",
          "type": "uint256"
        }
      ],
      "name": "addHealth",
      "outputs": [
        {
          "internalType": "uint32",
          "name": "",
          "type": "uint32"
        }
      ],
      "stateMutability": "pure",
      "type": "function"
    },
    {
      "inputs": [
        {
          "internalType": "uint256",
          "name": "hero",
          "type": "uint256"
        }
      ],
      "name": "addIntelligence",
      "outputs": [
        {
          "internalType": "uint32",
          "name": "",
          "type": "uint32"
        }
      ],
      "stateMutability": "pure",
      "type": "function"
    },
    {
      "inputs": [
        {
          "internalType": "uint256",
          "name": "hero",
          "type": "uint256"
        }
      ],
      "name": "addMagic",
      "outputs": [
        {
          "internalType": "uint32",
          "name": "",
          "type": "uint32"
        }
      ],
      "stateMutability": "pure",
      "type": "function"
    },
    {
      "inputs": [
        {
          "internalType": "uint256",
          "name": "hero",
          "type": "uint256"
        }
      ],
      "name": "addStrength",
      "outputs": [
        {
          "internalType": "uint32",
          "name": "",
          "type": "uint32"
        }
      ],
      "stateMutability": "pure",
      "type": "function"
    },
    {
      "inputs": [
        {
          "internalType": "enum Hero.Class",
          "name": "class",
          "type": "uint8"
        }
      ],
      "name": "createHero",
      "outputs": [],
      "stateMutability": "payable",
      "type": "function"
    },
    {
      "inputs": [],
      "name": "generateRandom",
      "outputs": [
        {
          "internalType": "uint256",
          "name": "",
          "type": "uint256"
        }
      ],
      "stateMutability": "view",
      "type": "function"
    },
    {
      "inputs": [],
      "name": "getHeroes",
      "outputs": [
        {
          "internalType": "uint256[]",
          "name": "",
          "type": "uint256[]"
        }
      ],
      "stateMutability": "view",
      "type": "function"
    }
  ],
  "bytecode": "0x608060405234801561001057600080fd5b50610a5e806100206000396000f3fe60806040526004361061007b5760003560e01c80639a8d28821161004e5780639a8d288214610141578063b8d959651461016c578063e60ed7fa146101a9578063f8305e27146101e65761007b565b806302e4af01146100805780635e7e236d146100ab578063838baa4b146100c757806386ab969314610104575b600080fd5b34801561008c57600080fd5b50610095610223565b6040516100a291906105dd565b60405180910390f35b6100c560048036038101906100c09190610622565b610256565b005b3480156100d357600080fd5b506100ee60048036038101906100e9919061067b565b6104db565b6040516100fb91906106c7565b60405180910390f35b34801561011057600080fd5b5061012b6004803603810190610126919061067b565b6104ec565b60405161013891906106c7565b60405180910390f35b34801561014d57600080fd5b506101566104fd565b60405161016391906107a0565b60405180910390f35b34801561017857600080fd5b50610193600480360381019061018e919061067b565b610591565b6040516101a091906106c7565b60405180910390f35b3480156101b557600080fd5b506101d060048036038101906101cb919061067b565b6105a2565b6040516101dd91906106c7565b60405180910390f35b3480156101f257600080fd5b5061020d6004803603810190610208919061067b565b6105b3565b60405161021a91906106c7565b60405180910390f35b600044426040516020016102389291906107e3565b6040516020818303038152906040528051906020012060001c905090565b66b1a2bc2ec500003410156102a0576040517f08c379a00000000000000000000000000000000000000000000000000000000081526004016102979061086c565b60405180910390fd5b6000600567ffffffffffffffff8111156102bd576102bc61088c565b5b6040519080825280602002602001820160405280156102eb5781602001602082028036833780820191505090505b509050600281600081518110610304576103036108bb565b5b602002602001018181525050600781600181518110610326576103256108bb565b5b602002602001018181525050600c81600281518110610348576103476108bb565b5b60200260200101818152505060118160038151811061036a576103696108bb565b5b60200260200101818152505060168160048151811061038c5761038b6108bb565b5b60200260200101818152505060006005905060008360028111156103b3576103b26108ea565b5b90505b6000826103c1610223565b6103cb9190610948565b90506000600184600d6103de91906109a8565b6103e6610223565b6103f09190610948565b6103fa91906109a8565b905084828151811061040f5761040e6108bb565b5b602002602001015181901b831792508380610429906109fe565b94505084848151811061043f5761043e6108bb565b5b602002602001015185838151811061045a576104596108bb565b5b6020026020010181815250505050600082116103b6576000803373ffffffffffffffffffffffffffffffffffffffff1673ffffffffffffffffffffffffffffffffffffffff16815260200190815260200160002081908060018154018082558091505060019003906000526020600020016000909190919091505550505050565b6000601f600c83901c169050919050565b6000601f600783901c169050919050565b60606000803373ffffffffffffffffffffffffffffffffffffffff1673ffffffffffffffffffffffffffffffffffffffff16815260200190815260200160002080548060200260200160405190810160405280929190818152602001828054801561058757602002820191906000526020600020905b815481526020019060010190808311610573575b5050505050905090565b6000601f600283901c169050919050565b6000601f601683901c169050919050565b6000601f601183901c169050919050565b6000819050919050565b6105d7816105c4565b82525050565b60006020820190506105f260008301846105ce565b92915050565b600080fd5b6003811061060a57600080fd5b50565b60008135905061061c816105fd565b92915050565b600060208284031215610638576106376105f8565b5b60006106468482850161060d565b91505092915050565b610658816105c4565b811461066357600080fd5b50565b6000813590506106758161064f565b92915050565b600060208284031215610691576106906105f8565b5b600061069f84828501610666565b91505092915050565b600063ffffffff82169050919050565b6106c1816106a8565b82525050565b60006020820190506106dc60008301846106b8565b92915050565b600081519050919050565b600082825260208201905092915050565b6000819050602082019050919050565b610717816105c4565b82525050565b6000610729838361070e565b60208301905092915050565b6000602082019050919050565b600061074d826106e2565b61075781856106ed565b9350610762836106fe565b8060005b8381101561079357815161077a888261071d565b975061078583610735565b925050600181019050610766565b5085935050505092915050565b600060208201905081810360008301526107ba8184610742565b905092915050565b6000819050919050565b6107dd6107d8826105c4565b6107c2565b82525050565b60006107ef82856107cc565b6020820191506107ff82846107cc565b6020820191508190509392505050565b600082825260208201905092915050565b7f5061796d656e74206973206d696e696d756d206f6620302e3035000000000000600082015250565b6000610856601a8361080f565b915061086182610820565b602082019050919050565b6000602082019050818103600083015261088581610849565b9050919050565b7f4e487b7100000000000000000000000000000000000000000000000000000000600052604160045260246000fd5b7f4e487b7100000000000000000000000000000000000000000000000000000000600052603260045260246000fd5b7f4e487b7100000000000000000000000000000000000000000000000000000000600052602160045260246000fd5b7f4e487b7100000000000000000000000000000000000000000000000000000000600052601260045260246000fd5b6000610953826105c4565b915061095e836105c4565b92508261096e5761096d610919565b5b828206905092915050565b7f4e487b7100000000000000000000000000000000000000000000000000000000600052601160045260246000fd5b60006109b3826105c4565b91506109be836105c4565b9250827fffffffffffffffffffffffffffffffffffffffffffffffffffffffffffffffff038211156109f3576109f2610979565b5b828201905092915050565b6000610a09826105c4565b91506000821415610a1d57610a1c610979565b5b60018203905091905056fea2646970667358221220a5128a8545c03710dd5b5cad80bc97853fe788cb01e608195689d1d8260baa6d64736f6c634300080a0033",
  "linkReferences": {},
  "deployedLinkReferences": {}
}