{
  "_format": "hh-sol-artifact-1",
  "contractName": "TestHero",
  "sourceName": "contracts/TestHero.sol",
  "abi": [
    {
      "inputs": [
        {
          "internalType": "uint256",
          "name": "hero",
          "type": "uint256"
        }
      ],
      "name": "addDexterity",
      "outputs": [
        {
          "internalType": "uint32",
          "name": "",
          "type": "uint32"
        }
      ],
      "stateMutability": "pure",
      "type": "function"
    },
    {
      "inputs": [
        {
          "internalType": "uint256",
          "name": "hero",
          "type": "uint256"
        }
      ],
      "name": "addHealth",
      "outputs": [
        {
          "internalType": "uint32",
          "name": "",
          "type": "uint32"
        }
      ],
      "stateMutability": "pure",
      "type": "function"
    },
    {
      "inputs": [
        {
          "internalType": "uint256",
          "name": "hero",
          "type": "uint256"
        }
      ],
      "name": "addIntelligence",
      "outputs": [
        {
          "internalType": "uint32",
          "name": "",
          "type": "uint32"
        }
      ],
      "stateMutability": "pure",
      "type": "function"
    },
    {
      "inputs": [
        {
          "internalType": "uint256",
          "name": "hero",
          "type": "uint256"
        }
      ],
      "name": "addMagic",
      "outputs": [
        {
          "internalType": "uint32",
          "name": "",
          "type": "uint32"
        }
      ],
      "stateMutability": "pure",
      "type": "function"
    },
    {
      "inputs": [
        {
          "internalType": "uint256",
          "name": "hero",
          "type": "uint256"
        }
      ],
      "name": "addStrength",
      "outputs": [
        {
          "internalType": "uint32",
          "name": "",
          "type": "uint32"
        }
      ],
      "stateMutability": "pure",
      "type": "function"
    },
    {
      "inputs": [
        {
          "internalType": "enum Hero.Class",
          "name": "class",
          "type": "uint8"
        }
      ],
      "name": "createHero",
      "outputs": [],
      "stateMutability": "payable",
      "type": "function"
    },
    {
      "inputs": [],
      "name": "generateRandom",
      "outputs": [
        {
          "internalType": "uint256",
          "name": "",
          "type": "uint256"
        }
      ],
      "stateMutability": "view",
      "type": "function"
    },
    {
      "inputs": [],
      "name": "getHeroes",
      "outputs": [
        {
          "internalType": "uint256[]",
          "name": "",
          "type": "uint256[]"
        }
      ],
      "stateMutability": "view",
      "type": "function"
    },
    {
      "inputs": [
        {
          "internalType": "uint256",
          "name": "r",
          "type": "uint256"
        }
      ],
      "name": "setRandom",
      "outputs": [],
      "stateMutability": "nonpayable",
      "type": "function"
    }
  ],
  "bytecode": "0x608060405234801561001057600080fd5b50610a26806100206000396000f3fe6080604052600436106100865760003560e01c806386ab96931161005957806386ab9693146101385780639a8d288214610175578063b8d95965146101a0578063e60ed7fa146101dd578063f8305e271461021a57610086565b806302e4af011461008b5780635e7e236d146100b6578063729e7cf6146100d2578063838baa4b146100fb575b600080fd5b34801561009757600080fd5b506100a0610257565b6040516100ad91906105f2565b60405180910390f35b6100d060048036038101906100cb9190610637565b610261565b005b3480156100de57600080fd5b506100f960048036038101906100f49190610690565b6104e6565b005b34801561010757600080fd5b50610122600480360381019061011d9190610690565b6104f0565b60405161012f91906106dc565b60405180910390f35b34801561014457600080fd5b5061015f600480360381019061015a9190610690565b610501565b60405161016c91906106dc565b60405180910390f35b34801561018157600080fd5b5061018a610512565b60405161019791906107b5565b60405180910390f35b3480156101ac57600080fd5b506101c760048036038101906101c29190610690565b6105a6565b6040516101d491906106dc565b60405180910390f35b3480156101e957600080fd5b5061020460048036038101906101ff9190610690565b6105b7565b60405161021191906106dc565b60405180910390f35b34801561022657600080fd5b50610241600480360381019061023c9190610690565b6105c8565b60405161024e91906106dc565b60405180910390f35b6000600154905090565b66b1a2bc2ec500003410156102ab576040517f08c379a00000000000000000000000000000000000000000000000000000000081526004016102a290610834565b60405180910390fd5b6000600567ffffffffffffffff8111156102c8576102c7610854565b5b6040519080825280602002602001820160405280156102f65781602001602082028036833780820191505090505b50905060028160008151811061030f5761030e610883565b5b60200260200101818152505060078160018151811061033157610330610883565b5b602002602001018181525050600c8160028151811061035357610352610883565b5b60200260200101818152505060118160038151811061037557610374610883565b5b60200260200101818152505060168160048151811061039757610396610883565b5b60200260200101818152505060006005905060008360028111156103be576103bd6108b2565b5b90505b6000826103cc610257565b6103d69190610910565b90506000600184600d6103e99190610970565b6103f1610257565b6103fb9190610910565b6104059190610970565b905084828151811061041a57610419610883565b5b602002602001015181901b831792508380610434906109c6565b94505084848151811061044a57610449610883565b5b602002602001015185838151811061046557610464610883565b5b6020026020010181815250505050600082116103c1576000803373ffffffffffffffffffffffffffffffffffffffff1673ffffffffffffffffffffffffffffffffffffffff16815260200190815260200160002081908060018154018082558091505060019003906000526020600020016000909190919091505550505050565b8060018190555050565b6000601f600c83901c169050919050565b6000601f600783901c169050919050565b60606000803373ffffffffffffffffffffffffffffffffffffffff1673ffffffffffffffffffffffffffffffffffffffff16815260200190815260200160002080548060200260200160405190810160405280929190818152602001828054801561059c57602002820191906000526020600020905b815481526020019060010190808311610588575b5050505050905090565b6000601f600283901c169050919050565b6000601f601683901c169050919050565b6000601f601183901c169050919050565b6000819050919050565b6105ec816105d9565b82525050565b600060208201905061060760008301846105e3565b92915050565b600080fd5b6003811061061f57600080fd5b50565b60008135905061063181610612565b92915050565b60006020828403121561064d5761064c61060d565b5b600061065b84828501610622565b91505092915050565b61066d816105d9565b811461067857600080fd5b50565b60008135905061068a81610664565b92915050565b6000602082840312156106a6576106a561060d565b5b60006106b48482850161067b565b91505092915050565b600063ffffffff82169050919050565b6106d6816106bd565b82525050565b60006020820190506106f160008301846106cd565b92915050565b600081519050919050565b600082825260208201905092915050565b6000819050602082019050919050565b61072c816105d9565b82525050565b600061073e8383610723565b60208301905092915050565b6000602082019050919050565b6000610762826106f7565b61076c8185610702565b935061077783610713565b8060005b838110156107a857815161078f8882610732565b975061079a8361074a565b92505060018101905061077b565b5085935050505092915050565b600060208201905081810360008301526107cf8184610757565b905092915050565b600082825260208201905092915050565b7f5061796d656e74206973206d696e696d756d206f6620302e3035000000000000600082015250565b600061081e601a836107d7565b9150610829826107e8565b602082019050919050565b6000602082019050818103600083015261084d81610811565b9050919050565b7f4e487b7100000000000000000000000000000000000000000000000000000000600052604160045260246000fd5b7f4e487b7100000000000000000000000000000000000000000000000000000000600052603260045260246000fd5b7f4e487b7100000000000000000000000000000000000000000000000000000000600052602160045260246000fd5b7f4e487b7100000000000000000000000000000000000000000000000000000000600052601260045260246000fd5b600061091b826105d9565b9150610926836105d9565b925082610936576109356108e1565b5b828206905092915050565b7f4e487b7100000000000000000000000000000000000000000000000000000000600052601160045260246000fd5b600061097b826105d9565b9150610986836105d9565b9250827fffffffffffffffffffffffffffffffffffffffffffffffffffffffffffffffff038211156109bb576109ba610941565b5b828201905092915050565b60006109d1826105d9565b915060008214156109e5576109e4610941565b5b60018203905091905056fea2646970667358221220bce6e7e96b3710e6840e069562850a5bbba3aa96f048b96d00374789010d8f3264736f6c634300080a0033",
  "linkReferences": {},
  "deployedLinkReferences": {}
}